:020000040000FA
:060000004FEF16F01200A4
:020006001200E6
:060008004BEF0FF01200A7
:02000E00C250DE
:08001000020B01E0010E1200D9
:06001800A8EF0FF012003A
:02001E000400DC
:100020000B2D00007001000002000000082D0000F0
:100030005D00000003000000062D00006E010000BE
:1000400002000000FE2C0000590100000800000022
:10005000D9CFE6FFDACFE6FFE1CFD9FFE2CFDAFF73
:1000600086E901500106000914E002EBE6FF03EB0C
:10007000E6FF00EBE6FF3CEC14F043E9F3CF61F15F
:10008000F4CF62F10101F31CECE1621DEAE1010E23
:1000900001D0000E41E9E5CFDAFFE7CFD9FF12002A
:1000A000D9CFE6FFDACFE6FFE1CFD9FFE2CFDAFF23
:1000B00089E97BE80A6A0B6A02EBF6FF03EBF7FFBC
:1000C00004EBF8FF0800F550096E095002E12BEF30
:1000D00006F0250E095C02E001EF06F00C6A0D6ADD
:1000E0000E6A0F6A106AD950020FE96E000EDA200C
:1000F000EA6EEF2AEECFF6FF000EEF22EECFF7FF0B
:10010000EF22EECFF8FF0800F550096E2D0E095CC6
:100110000CE02B0E095C09E0200E095C06E0230EC2
:10012000095C03E0300E095C15E10950300A10E06B
:10013000130A0CE0030A08E00B0A04E0060AD3E104
:100140000C80D1D70C82CFD70C84CDD70C86CBD7DF
:100150000C88C9D72A0E095C31E1020E005E000E40
:10016000015A00EBE9FF01EBEAFFEE501C6EED5087
:100170001D6E1D340DE30C801CEB61F11DEB62F173
:100180000101616D621F000E622361510D6E02D08C
:100190009CEB0DF0D950020FE96E000EDA20EA6EEA
:1001A000EF2AEECFF6FF000EEF22EECFF7FFEF22A1
:1001B000EECFF8FF0800F550096E25D0126A0950FD
:1001C000E66EE66AFFEC15F042E9F3501AE00A0E1B
:1001D0001202F3500924D00F126ED950020FE96EAB
:1001E000000EDA20EA6EEF2AEECFF6FF000EEF22C5
:1001F000EECFF7FFEF22EECFF8FF0800F550096EC3
:10020000DED792EB0DF00CB00C982E0E095C63E17A
:10021000D950020FE96E000EDA20EA6EEF2AEECF17
:10022000F6FF000EEF22EECFF7FFEF22EECFF8FF42
:100230000800F550096E2A0E095C26E1020E005EE8
:10024000000E015A00EBE9FF01EBEAFFEE501C6ED5
:10025000ED501D6E1D3404E29CEB0EF0010E0F6E8E
:10026000D950020FE96E000EDA20EA6EEF2AEECFC7
:10027000F6FF000EEF22EECFF7FFEF22EECFF8FFF2
:100280000800F550096E27D0126A0950E66EE66A3A
:10029000FFEC15F042E9F3501AE00A0E1202F35097
:1002A0000924D00F126ED950020FE96E000EDA2029
:1002B000EA6EEF2AEECFF6FF000EEF22EECFF7FF49
:1002C000EF22EECFF8FF0800F550096EDED792EB73
:1002D0000EF0010E0F6E680E095C19E1D950020F85
:1002E000E96E000EDA20EA6EEF2AEECFF6FF000E7E
:1002F000EF22EECFF7FFEF22EECFF8FF0800F55028
:10030000096E680E095C2FE1030E106E19D0740E91
:10031000095C16E07A0E095C13E0480E095C06E001
:10032000540E095C03E05A0E095C02E1020E07D08C
:100330006C0E095C03E06A0E095C15E1010E106E9B
:10034000D950020FE96E000EDA20EA6EEF2AEECFE6
:10035000F6FF000EEF22EECFF7FFEF22EECFF8FF11
:100360000800F550096E09506E0A01E1E8D31E0A33
:1003700001E1EFD1200A01E1ECD13F0A01E1B0D166
:100380001A0A01E1ADD10D0A01E1AAD1200A01E169
:10039000A7D13A0A01E1A4D1200A01E1A1D1260A9C
:1003A00001E19DD10D0A01E19AD11A0A01E121D1A1
:1003B000200A01E175D0300A28E0460A0FE0250A3C
:1003C00002E019EF06F0D950020FE96E000EDA20B4
:1003D000EA6E010EEE5E000EEE5AEE5A05EBE6FFF7
:1003E00006EBE6FF250EE66E3CEC14F043E9F3CF96
:1003F00061F1F4CF62F10101F31C04E1621D02E13D
:1004000013EF06F00A2A17EF06F0116A0D500108E3
:1004100006E20D04116E11500A26000E0B22115037
:1004200011E0010E0C140EE1200EE66E11EBE6FF5A
:1004300005EBE6FF06EBE6FF0BDE44E9000901E011
:10044000F2D3116A020E005E000E015A00EBE9FFC2
:1004500001EBEAFFEF50096E05EBE6FF06EBE6FF66
:1004600009EBE6FF3CEC14F043E9F3CF61F1F4CF84
:1004700062F10101F31C03E1621D01E1D4D30A2AF8
:10048000000E0B22200EE66E11EBE6FF05EBE6FFF9
:1004900006EBE6FFDDDD44E9000901E1CAD3C3D381
:1004A000020E105C0EE1030E005E000E015A00EB1E
:1004B000E9FF01EBEAFFEE50176EEE50186EEF50B9
:1004C00013D0020E005E000E015A00EBE9FF01EBB3
:1004D000EAFFEECF61F1EFCF62F10101636B615191
:1004E000176E6251186E6351196E17EBE6FF18EB29
:1004F000E6FF19EBE6FF3AEC13F043E968C161F15E
:1005000069C162F16AC163F1010161511C6E6251FE
:100510001D6E0F5006E01C500E5C03E20E501C6E68
:100520001D6A1C500D5C02E29CEB0DF01C500D5C32
:10053000116E11500A26000E0B220F5005E00D50CF
:100540000E5C02E28EEB0DF00CB00ED0200EE66ECB
:1005500011EBE6FF05EBE6FF06EBE6FF79DD44E98C
:10056000000901E060D3116A126A17EBF6FF18EB7D
:10057000F7FF19EBF8FF0800F550096E09502BE062
:100580000D50125C28E205EBE6FF06EBE6FF09EBF7
:10059000E6FF3CEC14F043E9F3CF61F1F4CF62F1F4
:1005A0000101F31C03E1621D01E13DD30A2A000EA3
:1005B0000B22122AD950170FE96E000EDA20EA6ECC
:1005C000EF2AEECFF6FF000EEF22EECFF7FFEF227D
:1005D000EECFF8FFD0D7200EE66E11EBE6FF05EB6D
:1005E000E6FF06EBE6FF34DD44E9000901E121D333
:1005F0001AD3020E005E000E015A00EBE9FF01EB78
:10060000EAFFEE501A6EED501B6E1AEBE6FF1BEB85
:10061000E6FF2CEC13F042E9F3501C6EF4501D6E13
:100620000F5006E01C500E5C03E20E501C6E1D6A5B
:100630001C500D5C02E29CEB0DF01C500D5C116E29
:1006400011500A26000E0B220F5005E00D500E5CD3
:1006500002E28EEB0DF00CB00ED0200EE66E11EB28
:10066000E6FF05EBE6FF06EBE6FFF2DC44E90009F6
:1006700001E0D9D2116A126A1AEBE9FF1BEBEAFF1B
:10068000EF50096E09501DE00D50125C1AE205EBA7
:10069000E6FF06EBE6FF09EBE6FF3CEC14F043E96E
:1006A000F3CF61F1F4CF62F10101F31C03E1621DAC
:1006B00001E1B9D20A2A000E0B22122A1A2A1B22A1
:1006C000DBD7200EE66E11EBE6FF05EBE6FF06EB4F
:1006D000E6FFBEDC44E9000901E1ABD2A4D20C8EF6
:1006E000100410E1040E005E000E015A00EBE9FF59
:1006F00001EBEAFFEE50136EEE50146EEE50156EE5
:10070000EF506CD0030E105C24E10CAE13D0020E3F
:10071000005E000E015A00EBE9FF01EBEAFFEFCFAC
:1007200061F10101626B636B646B61AF50D0626910
:1007300063694CD0020E005E000E015A00EBE9FF27
:1007400001EBEAFFEFCF61F101016151136E146A11
:1007500058D0020E105C26E10CAE13D0030E005EE2
:10076000000E015A00EBE9FF01EBEAFFEECF61F169
:10077000EECF62F1EFCF63F10101646B63AF27D07D
:1007800025D0030E005E000E015A00EBE9FF01EBDD
:10079000EAFFEECF61F1EECF62F1EFCF63F101013D
:1007A000646B15D00CAE1CD0020E005E000E015A18
:1007B00000EBE9FF01EBEAFFEECF61F1EFCF62F171
:1007C0000101636B646B62AF02D06369646961515C
:1007D000136E6251146E6351156E6451166E13D010
:1007E000020E005E000E015A00EBE9FF01EBEAFF8A
:1007F000EECF61F1EFCF62F101016151136E6251F1
:10080000146E156A166A0F5002E1010E0E6E1E6A12
:100810001F6AD950400FE66E000EDA20E66EE552F0
:10082000E550436EE750426E416A116A0A0E106E3F
:100830000950780A12E0200A10E0280A0CE0200A89
:100840000AE03F0A06E00D0A02E0200A08E1020E73
:1008500005D0080E03D0080E0926100E106E0CBE2F
:1008600002D00C920C94800E0C1424E0163422E377
:10087000E668E668E668E66813EBE6FF14EBE6FF79
:1008800015EBE6FF16EBE6FF9BEC10F0E552E5CF2B
:1008900064F1E5CF63F1E5CF62F1E7CF61F10101EA
:1008A0006151136E6251146E6351156E6451166E70
:1008B0002D0E07D00CA202D02B0E03D00CA404D016
:1008C000200E206E1E2A01D0206A0E5006E1135021
:1008D00014101510161001E179D00101E60E616FB8
:1008E0002C0E626F000E636F10EBE6FFE66AE66A9D
:1008F000E66A13EBE6FF14EBE6FF15EBE6FF16EBFB
:10090000E6FF58EC10F0E552E5CF67F1E5CF66F170
:10091000E5CF65F1E7CF64F1010161516425F36E24
:1009200062516521F46E63516621F86EF4CFF7FFD2
:10093000F3CFF6FF0800F550126E580E095C05E182
:10094000610E125C02E3200E125E10EBE6FFE66A17
:10095000E66AE66A13EBE6FF14EBE6FF15EBE6FF4B
:1009600016EBE6FF55EC10F0E552E550166EE5503B
:10097000156EE550146EE750136E42EBE9FF43EB42
:10098000EAFF4206000E435A12EBEFFF1E2A1350F5
:10099000141015101610A1E10CA619D06F0E095CE9
:1009A00006E10E501E5C13E31E280E6E10D0780E6A
:1009B000095C09E0580E095C06E0620E095C03E080
:1009C000420E095C04E1020E1F6E01D01E6A100E79
:1009D0000C1407E00D500E5C04E20F5002E18DEBA9
:1009E0000EF00E501E5C03E21E500E5E01D00E6A29
:1009F0000E501E241F24D8800D5407E20E500D5CAB
:100A0000D8801E54D8801F54116E010E0C1415E1AD
:100A1000115013E0200EE66E11EBE6FF05EBE6FF4A
:100A200006EBE6FF28EC00F044E9000901E0FBD00A
:100A300011500A26000E0B22116A205013E005EB1C
:100A4000E6FF06EBE6FF20EBE6FF3CEC14F043E9A3
:100A5000F3CF61F1F4CF62F10101F31C03E1621DF8
:100A600001E1E1D01F5026E005EBE6FF06EBE6FFD3
:100A7000300EE66E3CEC14F043E9F3CF61F1F4CFB5
:100A800062F10101F31C03E1621D01E1CCD005EB31
:100A9000E6FF06EBE6FF09EBE6FF3CEC14F043E96A
:100AA000F3CF61F1F4CF62F10101F31C03E1621DA8
:100AB00001E1B9D00E501F5C02E21F500E5E300EF5
:100AC000E66E0EEBE6FF05EBE6FF06EBE6FF28EC35
:100AD00000F044E9000901E0A6D0422A000E4322BA
:100AE00042EBE9FF43EBEAFFEF50126E125013E0C6
:100AF00005EBE6FF06EBE6FF12EBE6FF3CEC14F03D
:100B000043E9F3CF61F1F4CF62F10101F31CE5E1B8
:100B1000621DE3E188D0200EE66E11EBE6FF05EBE7
:100B2000E6FF06EBE6FF28EC00F044E9000901E0EF
:100B30007AD00E501E2411241F240A2678D010507B
:100B4000030A50E0010A33E0030A11E0020E005EDE
:100B5000000E015A00EBE9FF01EBEAFFEE50EFCF88
:100B6000EAFFE96E0AEBEEFF0BEBEDFF62D00AEB5A
:100B700061F10BEB62F10101636B646B62AF02D058
:100B800063696469020E005E000E015A00EBE9FF22
:100B900001EBEAFFEE50EFCFEAFFE96E61C1EEFF35
:100BA00062C1EEFF63C1EEFF64C1EEFF42D00AEB0B
:100BB00061F10BEB62F10101636B62BF6369020ECD
:100BC000005E000E015A00EBE9FF01EBEAFFEE5078
:100BD000EFCFEAFFE96E61C1EEFF62C1EEFF63C1D4
:100BE000EEFF27D0020E005E000E015A00EBE9FF77
:100BF00001EBEAFFEE50EFCFEAFFE96E0AEBEFFF01
:100C000018D005EBE6FF06EBE6FF09EBE6FF3CEC50
:100C100014F043E9F3CF61F1F4CF62F10101F31C69
:100C200005E1621D03E1F368F46819D00A2A000E99
:100C30000B22D950020FE96E000EDA20EA6EEF2A7D
:100C4000EECFF6FF000EEF22EECFF7FFEF22EECF52
:100C5000F8FF62EF00F00AEBF3FF0BEBF4FF7CE927
:0A0C6000E5CFDAFFE7CFD9FF12005D
:060C6A00D9CFE6FFE1CF47
:100C7000D9FF82E941E9E7CFD9FF1200D9CFE6FFDA
:100C8000E1CFD9FF84E941E9E7CFD9FF1200D9CFFD
:100C9000E6FFE1CFD9FF82E941E9E7CFD9FF1200B2
:100CA000D9CFE6FFE1CFD9FF84E96CC1E9FF6DC17F
:100CB000EAFF230EE926000EEA22EF6A6CC1E9FF83
:100CC0006DC1EAFF230EEB50D880025432E26CC1B2
:100CD000E9FF6DC1EAFF230EEB500024E96E000E20
:100CE0000120EA6EEF50E66E6CC1E9FF6DC1EAFFCC
:100CF000140EE926000EEA22E9CF61F1EACF62F193
:100D00006CC1E9FF6DC1EAFF230EEB500101EA6AF5
:100D10006125E96E6251EA22E552E750EF6E6CC13F
:100D2000E9FF6DC1EAFF230EE926000EEA22EF2A51
:100D3000C5D76CC1E9FF6DC1EAFF230EE926000E9D
:100D4000EA2202EBEFFF6CC1E9FF6DC1EAFF240E5E
:100D5000E926000EEA22010EEF6E6CC1E9FF6DC1BB
:100D6000EAFF140EEB50C96EC68841E9E7CFD9FF00
:100D70001200D9CFE6FFE1CFD9FF82E96CC1E9FFCC
:100D80006DC1EAFF100EE926000EEA22010EEF6E99
:100D90006CC1E9FF6DC1EAFF0F0EE926000EEA22E1
:100DA000EF6A005035E0C7AA1DD06CC1E9FF6DC1E4
:100DB000EAFF110EE926000EEA22050EEF6E6CC165
:100DC000E9FF6DC1EAFF130EE926000EEA22EF2AC1
:100DD0006CC1E9FF6DC1EAFF120EE926000EEA229E
:100DE000050E1FD0C7A40AD06CC1E9FF6DC1EAFF90
:100DF000110EE926000EEA22080E13D06CC1E9FF9D
:100E00006DC1EAFF110EE926000EEA22070E09D095
:100E10006CC1E9FF6DC1EAFF110EE926000EEA225E
:100E2000060EEF6E41E9E7CFD9FF1200D9CFE6FFFA
:100E3000E1CFD9FF81E949E8026A036A046A056AD9
:100E4000066AC6AC20D0C69C6CC1E9FF6DC1EAFF42
:100E5000110EE926000EEA22050EEF6E010E066E57
:100E60006CC1E9FF6DC1EAFF130EE926000EEA220C
:100E7000EF2A6CC1E9FF6DC1EAFF120EE926000EF0
:100E8000EA22040EEF6EC7A004D0C950016E010E15
:100E9000026E065001E05FD16CC1E9FF6DC1EAFF4F
:100EA000110EEB50070A01E1B4D00F0A01E17FD027
:100EB0000E0A16E0030A01E04ED1C7A64CD102EBA0
:100EC000E6FF57DF41E96CC1E9FF6DC1EAFF110E92
:100ED000EB50080801E03FD1026A010E056E3BD1DC
:100EE000C7A822D06CC1E9FF6DC1EAFF100EE92648
:100EF000000EEA22EF2A025001E123D1C7AAD1D085
:100F00006CC1E9FF6DC1EAFF130EE926000EEA226B
:100F1000EF2A6CC1E9FF6DC1EAFF120EE926000E4F
:100F2000EA22060EEF6E0DD1025001E114D16CC120
:100F3000E9FF6DC1EAFF100EE926000EEA22EF2A52
:100F4000C7BA18D0C7B40AD06CC1E9FF6DC1EAFFB7
:100F5000110EE926000EEA22070EFCD06CC1E9FF53
:100F60006DC1EAFF110EE926000EEA22080EEF6EAF
:100F7000010ED1D06CC1E9FF6DC1EAFF130EE92665
:100F8000000EEA22EF2A6CC1E9FF6DC1EAFF110EE3
:100F9000E926000EEA22050EEF6E6CC1E9FF6DC175
:100FA000EAFF120EE926000EEA22060ED3D06CC12B
:100FB000E9FF6DC1EAFF240EEB500101616F230EC2
:100FC000EB50615D01E3BDD06CC1E9FF6DC1EAFF8B
:100FD000140EE926000EEA22E9CF61F1EACF62F1B0
:100FE0006CC1E9FF6DC1EAFF240EEB50EA6A61258E
:100FF000E96E6251EA22EF50C96E6CC1E9FF6DC122
:10100000EAFF240EE926000EEA22EF2A010E036E03
:10101000A2D0C7A849D06CC1E9FF6DC1EAFF100E8C
:10102000E926000EEA22EF2A02503BE0C7AA1CD0B4
:101030006CC1E9FF6DC1EAFF6CC161F16DC162F184
:101040000F0EEB500101EA6A6125E96E6251EA2256
:1010500001EBEFFF6CC1E9FF6DC1EAFF0F0EE9265E
:10106000000EEA22EF2A1DD06CC1E9FF6DC1EAFF34
:10107000130EE926000EEA22EF2A6CC1E9FF6DC1CA
:10108000EAFF120EE926000EEA22060EEF6E6CC190
:10109000E9FF6DC1EAFF110EE926000EEA22050EF6
:1010A0004FD0010E046E4DD0025055E06CC1E9FFE7
:1010B0006DC1EAFF100EE926000EEA22EF2AC7AA48
:1010C0001CD06CC1E9FF6DC1EAFF6CC161F16DC15B
:1010D00062F10F0EEB500101EA6A6125E96E62517F
:1010E000EA2201EBEFFF6CC1E9FF6DC1EAFF0F0ED1
:1010F000E926000EEA22EF2A2ED0C7A40FD06CC139
:10110000E9FF6DC1EAFF110EE926000EEA22080E82
:10111000EF6E010E046E056E026A1DD06CC1E9FF10
:101120006DC1EAFF130EE926000EEA22EF2A6CC118
:10113000E9FF6DC1EAFF120EE926000EEA22060E53
:10114000EF6E6CC1E9FF6DC1EAFF110EE926000EDA
:10115000EA22050EEF6E025002E1035002E0C6A83B
:10116000C6886CC1E9FF6DC1EAFF0F0EEB500D0898
:101170001FE204501DE16CC1E9FF6DC1EAFF110ED1
:10118000E926000EEA22050EEF6E6CC1E9FF6DC183
:10119000EAFF130EE926000EEA22EF2A6CC1E9FFEE
:1011A0006DC1EAFF120EE926000EEA22070EEF6E6D
:1011B000045031E06CC1E9FF6DC1EAFF100EEB5045
:1011C000E66E6CC161F16DC162F10F0EEB50010171
:1011D000EA6A6125E96E6251EA22E552E750EF6E54
:1011E0006CC1E9FF6DC1EAFF6CC161F16DC162F1D3
:1011F0006CC1E6FF6DC1E6FF280EE66E0F0EEB50E8
:10120000010FE66EE3EC0DF044E96CC1E9FF6DC13E
:10121000EAFF0F0E29D06CC1E9FF6DC1EAFF130E82
:10122000EB500101616F010E615D22E36CC1E9FFCA
:101230006DC1EAFF130EEB50076E120EEB50086EF5
:10124000100EEB50096ED950070FE66EDACFE6FFAD
:10125000290EE66E030EE66EE3EC0DF044E96CC178
:10126000E9FF6DC1EAFF130EE926000EEA22EF6ADC
:10127000055013E06CC1E9FF6DC1EAFF6CC161F17B
:101280006DC162F16CC1E6FF6DC1E6FF2A0EE66E2C
:10129000E66AE3EC0DF044E9056A4AE9E7CFD9FFD5
:1012A0001200D9CFE6FFE1CFD9FF83E900EB6CF163
:1012B00001EB6DF16CC1E9FF6DC1EAFF0F0EE9268C
:1012C000000EEA22EF6A6CC1E9FF6DC1EAFF100E61
:1012D000E926000EEA22EF6A6CC1E9FF6DC1EAFF60
:1012E000110EE926000EEA22050EEF6E6CC1E9FF31
:1012F0006DC1EAFF130EE926000EEA22EF6A41E90A
:10130000E7CFD9FF1200D9CFE6FFE1CFD9FF82E9BD
:101310009486948800EBC8FFC76AC66AC56A0E0E39
:10132000C612C78E94869488C580C68A41E9E7CFE5
:04133000D9FF1200CF
:0C133400D9CFE6FFE1CFD9FF81E958E8EE
:101340006C0ED36E9B8CD950030FE66EDACFE6FF9E
:10135000EAEC12F042E9D950150FE66EDACFE6FF5B
:10136000AEEC13F042E99280949E949C94969498EB
:101370008B9C8B968B98936A816A8A6AFB0EE66EC9
:101380000C0EE66EE668A1EC14F043E9D60EE66EAC
:1013900053EC15F041E9C50EE66EF9EC14F041E9A5
:1013A00008EC0FF09F909F9A9F86190EE66EE66AF2
:1013B0006C0EE66EFBEC13F043E98A80E66A38ECCB
:1013C00015F041E9E66A38EC15F041E98A90E66AE1
:1013D00038EC15F041E9F1D7D9CFE6FFE1CFD9FFDD
:1013E00081E942E826D9F350016EF450026E060EF0
:1013F000E66EE66A3C0EE66E230EE66E9ED844E983
:10140000E66A38EC15F041E9120EE66EE66A290E3E
:10141000E66E230EE66E91D844E9E66A38EC15F0E4
:1014200041E91D0EE66EE66A0B0EE66E230EE66ED1
:1014300084D844E9E66A38EC15F041E90A0EE66E14
:10144000E66A000EE66E230EE66E77D844E9E66A99
:1014500038EC15F041E90A0EE66EE66AF50EE66E26
:10146000220EE66E6AD844E9E66A38EC15F041E9E6
:101470000A0EE66EE66AEA0EE66E220EE66E5DD8AB
:1014800044E9E66A38EC15F041E90A0EE66EE66AD0
:10149000DF0EE66E220EE66E50D844E9E66A38ECBE
:1014A00015F041E90A0EE66EE66AD40EE66E220EEB
:1014B000E66E43D844E9E66A38EC15F041E90A0ED5
:1014C000E66EE66AC90EE66E220EE66E36D844E98E
:1014D000E66A38EC15F041E9ABD9050EE66EE66A2E
:1014E000C30EE66E220EE66E28D844E9E66A38ECB2
:1014F00015F041E955D8F350016EF450026E04D84E
:1015000043E9E7CFD9FF1200E66A38EC15F041E96C
:10151000E66A38EC15F041E9E66A38EC15F041E985
:10152000E66A38EC15F041E9E66A38EC15F041E975
:10153000E66A38EC15F041E91200D9CFE6FFE1CFB9
:10154000D9FF85E943E8640EE66E38EC15F041E911
:10155000ACA2FED7056A066A01340650011804E6FB
:101560000050055C0150065817E202500524F66E43
:1015700003500620F76E0800F550076E07EBE6FFF4
:10158000E8EC15F041E9640EE66E21EC16F041E955
:10159000052A000E0622E0D744E9E7CFD9FF120062
:1015A000D9CFE6FFE1CFD9FF81E946E80101701DFF
:1015B0000FE1711D0DE13DD8F350056EF450066E3C
:1015C000051C02E1061C2FE0010E0101706F716B1A
:1015D000016A026A050ED89002BE03D0015C000EBB
:1015E000025821E2080EE66EE66ABB0EE66E220E97
:1015F000E66EA3DF44E988DF00014D5110E02A0EBA
:101600004D5D0DE1520E4E5D0AE1450E4F5D07E165
:10161000010170697169010EF36EF46A06D0012A46
:10162000000E0222D7D7F368F46847E9E7CFD9FF65
:101630001200D9CFE6FFE1CFD9FF81E944E80101EB
:10164000010E701904E1715102E1010E28D0016A06
:10165000026A050ED89002BE03D0015C000E02584B
:1016600025E2030EE66EE66AB70EE66E220EE66E21
:1016700064DF44E9640EE66E38EC15F041E90001E0
:101680004D5110E0430E4D5D0DE14D0E4E5D0AE1F2
:10169000440E4F5D07E1010E0101706F716BF36E37
:1016A000F46A06D0012A000E0222D3D7F368F46848
:1016B00045E9E7CFD9FF1200D9CFE6FFE1CFD9FF47
:1016C00081E944E80101701D02E1711D2AE0016A0F
:1016D000026A050ED89002BE03D0015C000E0258CB
:1016E00028E2050EE66EE66AB10EE66E220EE66EA2
:1016F00024DF44E9640EE66E38EC15F041E90001A0
:101700004D5113E0450E4D5D10E1580E4E5D0DE15B
:10171000490E4F5D0AE1540E505D07E10101706909
:101720007169010EF36EF46A06D0012A000E0222DE
:10173000D0D7F368F46845E9E7CFD9FF1200D9CFD5
:10174000E6FFE1CFD9FF81E946E80101701D0FE115
:10175000711D0DE16EDFF350056EF450066E051C31
:1017600002E1061C3FE0010E0101706F716B016A1E
:10177000026A050ED89002BE03D0015C000E02582A
:101780002CE20F0EE66EE66AA10EE66E220EE66E03
:10179000D4DE44E9B9DE070EE66EE66A990EE66E1F
:1017A000220EE66ECADE44E9AFDE00014D5111E0C3
:1017B000330E4F5D0EE180DFF350056EF450066E80
:1017C000010E0518F8E10650F6E1010EF36EF46A19
:1017D0000BD0012A000E0222CCD76EDFF350056E2B
:1017E000F450066EF368F46847E9E7CFD9FF1200BA
:1017F000D9CFE6FFE1CFD9FF81E946E8030EE66ED7
:10180000E66AB70EE66E220EE66E97DE44E9010E3A
:101810000101706F716B160EE66EE66A820EE66E5F
:10182000220EE66E8ADE44E947E9E7CFD9FF1200CF
:10183000D9CFE6FFE1CFD9FF81E942E8160EE66E87
:10184000E66A6B0EE66E220EE66E77DE44E90B0E5C
:10185000E66EE66A5F0EE66E220EE66E6EDE44E926
:101860000B0EE66EE66A530EE66E220EE66E65DE3F
:1018700044E9310EE66EE66A210EE66E220EE66E51
:101880005CDE44E90A0EE66EE66A160EE66E220E8D
:10189000E66E53DE44E91F0EE66EE66AF60EE66E6D
:1018A000210EE66E4ADE44E90A0EE66EE66AEB0EAB
:1018B000E66E210EE66E41DE44E943E9E7CFD9FF4B
:1018C0001200010EE66EE66AE90EE66E210EE66E85
:1018D00034DE44E91200010EE66EE66AE70EE66EBB
:1018E000210EE66E2ADE44E91200D9CFE6FFE1CFF1
:1018F000D9FF81E942E89DDEF350016EF450026E9B
:101900000E0EE66EE66AD80EE66E210EE66E15DE67
:0A19100044E943E9E7CFD9FF1200D4
:06191A00D9CFE6FFE1CF8A
:10192000D9FF83E941E800EBE9FF01EBEAFF480E4C
:10193000E926000EEA22EF6A00EBE9FF01EBEAFF7D
:10194000490EE926000EEA22EF6A036A040E035CE0
:101950000FE200EBE9FF01EBEAFF0350120DE95043
:10196000F324E96EEA50F420EA6EEF6A032AEED718
:1019700042E9E7CFD9FF1200D9CFE6FFE1CFD9FF87
:1019800087E945E803500A6E0B6A04EBE9FF05EBB3
:10199000EAFF480EE926000EEA22EF50076E04EB3C
:1019A000E9FF05EBEAFF0750120D0101F350E924AE
:1019B000086EF450EA20096E08EBE9FF09EBEAFF34
:1019C000EF5002E0FF0E48D008EBE9FF09EBEAFF19
:1019D000EE5203EBEFFF08EBE9FF09EBEAFF020E23
:1019E000E926000EEA2202EBEFFF0AEBE6FF0BEB23
:1019F000E6FF00EBE6FF01EBE6FF08EBE9FF09EB92
:101A0000EAFF030EE926000EEA22E9CF61F1EACFF0
:101A100062F1E9CFE6FFEACFE6FF01EC13F046E919
:101A200004EBE9FF05EBEAFF480EE926000EEA2287
:101A3000EF28030BE66E04EBE9FF05EBEAFF480E27
:101A4000E926000EEA22E552E750EF6E08EBE9FFC7
:101A500009EBEAFF010EEF6E46E9E7CFD9FF12006E
:101A6000D9CFE6FFE1CFD9FF88E945E805EBE9FFEB
:101A700006EBEAFF490EE926000EEA22EF50086E57
:101A800005EBE9FF06EBEAFF0850120D0101F350E8
:101A9000E924096EF450EA200A6E09EBE9FF0AEB2B
:101AA000EAFFEF045BE109EBE9FF0AEBEAFFEE5224
:101AB000EF50045C02E2FD0E52D009EBE9FF0AEBA5
:101AC000EAFFEE52EF500B6E0C6A0BEBE6FF0CEBED
:101AD000E6FF09EBE9FF0AEBEAFF030EE926000E39
:101AE000EA22E9CF61F1EACF62F1E9CFE6FFEACF7E
:101AF000E6FF00EBE6FF01EBE6FF01EC13F046E941
:101B000005EBE9FF06EBEAFF490EE926000EEA22A3
:101B1000EF28030BE66E05EBE9FF06EBEAFF490E43
:101B2000E926000EEA22E552E750EF6E09EBE9FFE5
:101B30000AEBEAFF020EE926000EEA22EF50E66EFB
:101B400002EBE9FF03EBEAFFE552E750EF6E09EB2A
:101B5000E9FF0AEBEAFFEF6A0B5001D0FC0E46E901
:101B6000E7CFD9FF1200D9CFE6FFE1CFD9FF85E952
:101B700000EBE6FF01EBE6FF02EBE6FF03EBE6FF1F
:101B8000000EE66E010EE66EF7DE46E941E9E7CFAC
:101B9000D9FF1200D9CFE6FFE1CFD9FF86E900EBEC
:101BA000E6FF01EBE6FF02EBE6FF03EBE6FF04EBEB
:101BB000E6FF000EE66E010EE66E52DF47E941E9F0
:101BC000E7CFD9FF1200D9CFE6FFE1CFD9FF85E9F2
:101BD00000EBE6FF01EBE6FF02EBE6FF03EBE6FFBF
:101BE000AA0EE66E000EE66EC7DE46E941E9E7CFD3
:101BF000D9FF1200D9CFE6FFE1CFD9FF86E900EB8C
:101C0000E6FF01EBE6FF02EBE6FF03EBE6FF04EB8A
:101C1000E6FFAA0EE66E000EE66E22DF47E941E916
:101C2000E7CFD9FF1200D9CFE6FFE1CFD9FF85E991
:101C300000EBE6FF01EBE6FF02EBE6FF03EBE6FF5E
:101C4000600EE66E000EE66E97DE46E941E9E7CFEC
:101C5000D9FF1200D9CFE6FFE1CFD9FF86E900EB2B
:101C6000E6FF01EBE6FF02EBE6FF03EBE6FF04EB2A
:101C7000E6FF600EE66E000EE66EF2DE47E941E931
:101C8000E7CFD9FF1200D9CFE6FFE1CFD9FF85E931
:101C900000EBE6FF01EBE6FF02EBE6FF03EBE6FFFE
:101CA000000EE66E000EE66E67DE46E941E9E7CF1C
:101CB000D9FF1200D9CFE6FFE1CFD9FF86E900EBCB
:101CC000E6FF01EBE6FF02EBE6FF03EBE6FF04EBCA
:101CD000E6FF000EE66E000EE66EC2DE47E941E961
:101CE000E7CFD9FF120000014A6B000EE66E010E2D
:101CF000E66E13DE42E9AA0EE66E000EE66E0DDE1B
:101D000042E9600EE66E000EE66E07DE42E9000E66
:101D1000E66E000EE66E01DE42E91200D38E03008D
:101D20001200D9CFE6FFE1CFD9FF83E900EBE9FF4D
:101D300001EBEAFFE9CF61F1EACF62F100EBE9FFE5
:101D400001EBEAFF490EE926000EEA22EF50120DE0
:101D500001016151F324E96E6251F420EA6EEF5003
:101D600041E9E7CFD9FF120000014A5101E1120019
:101D70002CEC0FF0F3CF61F1F4CF62F10101F350DD
:101D8000F41001E012000CEC0FF0F3CF61F1F4CF8E
:101D900062F10101F350F41001E11200AA0EE66EA7
:101DA000000EE66EBEDF42E9000901E01200000EFF
:101DB000E66E010EE66EB5DF42E9000901E01200B1
:101DC0008EEF0EF038EC0FF0F3CF61F1F4CF62F14B
:101DD000F350F41001E112000001010E4A6FAA0E47
:101DE000E66E000EE66E9DDF42E9000908E1000E96
:101DF000E66E010EE66E95DF42E9000903E00001A0
:101E00004A6B12000A0EE66E11EC16F041E9E7D7B4
:101E1000D08EF28EF28C1200F250800B800A01E01C
:101E2000010E0101616F626B800B01E0626961C1AB
:101E3000F3FF62C1F4FF1200F250400B400A01E0D0
:101E4000010E0101616F626B800B01E0626961C18B
:101E5000F3FF62C1F4FF1200F2BC04D0DDDFF350E7
:101E6000F41002E0000E01D0010EF36EF46A1200CD
:101E7000F3DFF3CF61F1F4CF62F10101F350F4101D
:101E800006E1CADFF350F41002E1010E01D0000EAA
:101E9000F36EF46A1200DACFE4FFE2CFDAFFE9CFA3
:101EA000E4FFEACFE4FFD9CFE4FFDACFE4FF68C173
:101EB000E4FF69C1E4FF6AC1E4FF6BC1E4FFF6CF50
:101EC000E4FFF7CFE4FFF5CFE4FFF3CFE4FFF4CF77
:101ED000E4FFFACFE4FF01EE61F0070EE80403E34C
:101EE000EECFE4FFFBD7E6529EA603D09E9616ECFB
:101EF00007F0F2A403D0F294ABEC11F0B4EC0EF0C6
:101F0000E55201EE67F0070EE80403E3E5CFEDFFCD
:101F1000FBD7E5CFFAFFE5CFF4FFE5CFF3FFE5CF41
:101F2000F5FFE5CFF7FFE5CFF6FFE5CF6BF1E5CFA6
:101F30006AF1E5CF69F1E5CF68F1E5CFDAFFE5CFEA
:101F4000D9FFE5CFEAFFE5CFE9FFE5CFDAFF1100E2
:101F5000D8CFE4FFE0CFE4FFE46EDACFE4FFE2CFD6
:101F6000DAFFE9CFE4FFEACFE4FFD9CFE4FFDACF2D
:101F7000E4FF68C1E4FF69C1E4FF6AC1E4FF6BC12B
:101F8000E4FFF6CFE4FFF7CFE4FFF5CFE4FFF3CFB4
:101F9000E4FFF4CFE4FFFACFE4FF01EE61F0070EB7
:101FA000E80403E3EECFE4FFFBD7E6529EA003D0A4
:101FB0009E903CEC12F09EAA03D09E9A5BEC12F02D
:101FC000E55201EE67F0070EE80403E3E5CFEDFF0D
:101FD000FBD7E5CFFAFFE5CFF4FFE5CFF3FFE5CF81
:101FE000F5FFE5CFF7FFE5CFF6FFE5CF6BF1E5CFE6
:101FF0006AF1E5CF69F1E5CF68F1E5CFDAFFE5CF2A
:10200000D9FFE5CFEAFFE5CFE9FFE5CFDAFFE550FD
:0A201000E5CFE0FFE5CFD8FF100098
:06201A0043E8D9CFE6FF08
:10202000DACFE6FFE1CFD9FFE2CFDAFF89E9066A2E
:102030001200F3DF068003D0F0DF01D00682056ACC
:10204000046A100EE76ED890023603360436053661
:102050000050045C0150055805E30050045E015037
:10206000055A022AE72EF0D706B2120006B006D0B3
:1020700084EB00F085EB01F006A004D082EB00F0C9
:1020800083EB01F0E552E5CFDAFFE7CFD9FF45E971
:10209000120045E8D9CFE6FFDACFE6FFE1CFD9FF5E
:1020A000E2CFDAFF8FE90C6A1200F3DF0C8003D075
:1020B000F0DF01D00C820B6A0A6A096A086A200EF6
:1020C000E76ED890043605360636073608360936E8
:1020D0000A360B360050085C0150095802500A5865
:1020E00003500B5809E30050085E0150095A025092
:1020F0000A5A03500B5A042AE72EE4D70CB21200F6
:102100000CB00AD088EB00F089EB01F08AEB02F00A
:102110008BEB03F00CA008D084EB00F085EB01F012
:1021200086EB02F087EB03F0E552E5CFDAFFE7CF6D
:10213000D9FF49E9120044E8D9CFE6FFDACFE6FF3C
:10214000E1CFD9FFE2CFDAFF8EE980EB08F081EB37
:1021500009F082EB0AF083EB0BF004500802F35015
:10216000006EF450016E04500902F3500126000E77
:10217000F420026E04500A02F3500226000EF420EE
:10218000036E04500B02F350032605500802F3506F
:102190000126F4500222000E032205500902F350DA
:1021A0000226F450032205500A02F350032606507B
:1021B0000802F3500226F450032206500902F3509D
:1021C000032607500802F3500326E552E5CFDAFF55
:0821D000E7CFD9FF48E9000C3C
:0821D800666163746F727920E7
:1021E00052455345540D0079006200736574206FA9
:1021F000206620380D00736574206F2064206B7397
:10220000715F746F726E61646F5F73706F72745F11
:10221000303030310D007365742075206D20320D23
:10222000007365742063207220474554242F707218
:102230006F746F747970652F73636F72652E706839
:10224000703F676F616C3D74727565267465616D72
:102250003D0D00736574206920722038300D0073C5
:102260006574206920702031380D00736574206911
:102270002068203139322E3136382E312E3130352A
:102280000D006F70656E203139322E3136382E31A7
:102290002E3130352038300D0073686F7720630D94
:1022A000006A6F696E20426F6F6E646F636B730DAF
:1022B00000657869740D00242424007265626F6FD4
:1022C000740D00736176650D007365742063207270
:1022D00020300D007365742063206F20300D007373
:1022E00065742069206420310D00736574207720A7
:1022F0006A20310D007365742077206120340D0051
:102300007365742077206320300D00736574207727
:1023100020702074686174734142697463684D6F02
:10232000766553616E74610D007365742077207358
:1023300020426F6F6E646F636B730D00676574206E
:10234000770D0054494D4552313A202564202564CB
:062350002025640D0A00C7
:0A235600D9CFE6FFE1CFD9FF81E9FE
:1023600046E8970EE66ED0EC15F041E9320EE66EC7
:1023700068EC16F041E97CEC16F007EC00F000097F
:10238000FCE1050EE66E68EC16F041E95CEC16F037
:10239000F3CF59F1F4CF5AF10101F4341EE259514F
:1023A000D008010E5A5519E25F2B000E60236035EC
:1023B00017E25F510508000E605512E2640ED890D6
:1023C00060BF03D05F5D000E60590AE28A8261EC53
:1023D0000CF0650E01015F6F02D08A925F6B606B3B
:1023E000870EE66ED0EC15F041E9050EE66E68EC5E
:1023F00016F041E97CEC16F007EC00F00009FCE176
:10240000050EE66E68EC16F041E901015B6B5C6B52
:102410005CEC16F0F3CF5BF1F4CF5CF10101F43426
:102420001EE25B51D008010E5C5519E25D2B000ED7
:102430005E235E3517E25D510508000E5E5512E21F
:10244000640ED8905EBF03D05D5D000E5E590AE257
:102450008A846BEC0CF0650E01015D6F02D08A94EA
:102460005D6B5E6B000EE66EE66AB8EC15F042E955
:1024700047E9E7CFD9FF1200D9CFE6FFE1CFD9FF77
:1024800081E942E8A0EC15F0F350016EF450026EC1
:10249000000EE66EE66A0B0EE66EE66AB3EC0DF031
:1024A00044E9000EE66EE66A88EC15F042E943E97D
:0624B000E7CFD9FF120086
:0A24B600D9CFE6FFE1CFD9FF81E99D
:1024C00045E8046805689EAA81D019EC15F0036EF2
:1024D0000A0E035C07E10D0E00015F5D03E1010ED2
:1024E000046E056A4BC0E9FF4CC0EAFF4BC061F1C6
:1024F0004CC062F10F0EEB500101EA6A6125E96EF2
:102500006251EA2203EBEFFF4BC0E9FF4CC0EAFF48
:102510000F0EE926000EEA22EF2A4BC0E9FF4CC05D
:10252000EAFF0F0EEB500A0807E305344DE20450B2
:102530000008000E055448E24BC0E9FF4CC0EAFF1A
:102540004BC061F14CC062F14BC0E6FF4CC0E6FFEE
:102550001F0EE66E0F0EEB50E66EB3EC0DF044E985
:10256000016A026A4BC0E9FF4CC0EAFF0F0EEB5054
:10257000D89002BE03D0015C000E02581AE24BC094
:1025800061F14CC062F1010101506125E96E025018
:102590006221EA6EEF50E66E4D0E0124E96E000EE8
:1025A0000220EA6EE552E750EF6E012A000E022289
:1025B000D9D74BC0E9FF4CC0EAFF0F0EE926000E49
:1025C000EA22EF6A0468056803EB5FF046E9E7CFAB
:1025D000D9FF1200D9CFE6FFE1CFD9FF83E900EBA5
:1025E0004BF001EB4CF04BC0E9FF4CC0EAFF0F0E83
:1025F000E926000EEA22EF6A41E9E7CFD9FF12008F
:022600001200C6
:0E260200D9CFE6FFDACFE6FFFA0EE3CFD9FF1D
:10261000FB0EE3CFDAFFFC0EE3CFE9FFFD0EE3CFC5
:10262000EAFFE9CFF3FFEACFF4FFF80EE35003E14E
:10263000F90EE35008E0F80EE30602E2F90EE306B5
:10264000DECFEEFFF2D7FF0EE3CFDAFFE552FF0E4B
:10265000E3CFD9FFE5521200FE0EE3CFE9FFFF0EF4
:10266000E3CFEAFFF36AF46AEE5203E0F34AF42A96
:10267000FBD71200FF0EE3CFF8FFE552FF0EE3CFCA
:10268000F7FFE552FF0EE3CFF6FFE552E66AE66A92
:10269000E66A0900F55209E0FD0EE32A05E1FE0EA7
:1026A000E32A02E1FF0EE32AF4D7FD0EE3CF68F13F
:0E26B000FE0EE3CF69F1FF0EE3CF6AF11200D8
:0226BE001E0EEE
:1026C000F66E000EF76E000EF86E00010900F55070
:1026D000F96F0900F550FA6F03E1F96701D03DD0B9
:1026E0000900F550F46F0900F550F56F0900F55039
:1026F000F66F09000900F550E96E0900F550EA6E21
:10270000090009000900F550F76F0900F550F86F4E
:1027100009000900F6CFFBF0F7CFFCF0F8CFFDF091
:10272000F4C0F6FFF5C0F7FFF6C0F8FF0001F7535D
:1027300002E1F85307E00900F550EE6EF707F8E202
:10274000F807F9D7FBC0F6FFFCC0F7FFFDC0F8FFA4
:0C2750000001F907000EFA5BBFD7120071
:04275C00D9CFE6FFEC
:10276000E1CFD9FF83E900EBE9FF01EBEAFFEE6A75
:10277000ED6A41E9E7CFD9FF1200D9CFE6FFE1CFFB
:10278000D9FF89E941E806EBE9FF07EBEAFFEE2A0A
:10279000000EEF220A0EE66EE66A06EBE9FF07EB93
:1027A000EAFFEECFE6FFEECFE6FF1CEC10F0E552BD
:1027B000E5CF62F1E7CF61F10101090E611917E17F
:1027C000625115E106EBE9FF07EBEAFFE9CF61F1A2
:1027D000EACF62F1E9CFE6FFEACFE6FF140EE66E3C
:1027E000020EE66E43EC0EF044E9096E093442E94C
:0627F000E7CFD9FF120043
:0A27F600D9CFE6FFDACFE6FFE1CF0E
:10280000D9FFE2CFDAFF85E9AC6AAB6A02B0AC88E7
:1028100002A202D0AC8CAB8C02B4AC8E02A602D069
:10282000AB8801D0AB8A02B8AC849E9802BAAB8662
:1028300002AC02D09D8A01D09D9A9E9A02AE02D02F
:102840009D8801D09D9800EBAFFF010101EB61F184
:10285000626B61C1B0FFAC8AAB8E949C948EAC501D
:10286000100B04E0AC50800B01E1948C41E9E5CF02
:08287000DAFFE7CFD9FF1200E7
:08287800D9CFE6FFDACFE6FF3D
:10288000E1CFD9FFE2CFDAFF85E9013415E200EBB1
:10289000E9FF01EBEAFFEECFF3FFEDCFF4FFEE2A05
:1028A000000EEF22F3CFE9FFF4CFEAFF02EBEFFFD8
:1028B000EF50F36EF46A0DD0FE0E005C05E102EB02
:1028C000E6FF41EC16F004D002EBE6FF03EC00F06B
:0E28D00041E941E9E5CFDAFFE7CFD9FF120079
:0228DE00D9CF50
:1028E000E6FFDACFE6FFE1CFD9FFE2CFDAFF85E9F5
:1028F00044E8D9CFE6FFDACFE6FFE552E550066EB1
:10290000E750056E05EBE6FF06EBE6FF00EBE6FFA2
:1029100001EBE6FF02EBE6FF6EC1E6FF6FC1E6FFEB
:1029200050EC00F047E9F350076EF450086E07EBE7
:10293000F3FF08EBF4FF45E9E5CFDAFFE7CFD9FF76
:02294000120083
:0E294200D9CFE6FFDACFE6FFE1CFD9FFE2CF33
:10295000DAFF85E9C26AC06A01407F0B3C0BC26E98
:102960000138F00B300B0101616F0F0E0014611183
:10297000C16E0250040DF350380B626F02380F0B1A
:10298000070B616F800E021461116211C06E01AEFF
:1029900003D09E9C9D8CF28CC28041E9E5CFDAFF8A
:0629A000E7CFD9FF120091
:0A29A600D9CFE6FFE1CFD9FF89E9A0
:1029B00042E880EB09F081EB0AF009EBE9FF0AEB52
:1029C000EAFFEECFE6FFEECFE6FF02EBE6FF03EB1A
:1029D000E6FF04EBE6FF05EBE6FF430EE66E230E93
:1029E000E66EE66A6FEC14F049E943E9E7CFD9FFF8
:0229F0001200D3
:0E29F200D9CFE6FFDACFE6FFE1CFD9FFE2CF83
:102A0000DAFF83E97E0E0014CD6E00AC02D0CD8ECD
:102A100001D0CD9ECF6ACE6A9E9000AE02D09D803E
:102A200001D09D90CD8041E9E5CFDAFFE7CFD9FF16
:022A3000120092
:0E2A3200D9CFE6FFDACFE6FFE1CFD9FFE2CF42
:102A4000DAFF82E941E8F20E01017417ABAC03D062
:102A50007491ABB07481ABB47485ABB27487AE5073
:102A6000026E025042E9E5CFDAFFE7CFD9FF12004C
:102A7000FF0EE3500101736FEE0E02D0F20E000064
:102A8000E76EE72E41EF15F00C0E0101726FE76A59
:102A9000E72E48EF15F0722F47EF15F00101732F65
:062AA0003EEF15F01200EC
:0A2AA600D9CFE6FFDACFE6FFE1CF5B
:102AB000D9FFE2CFDAFF83E97F0E0014D56ED76A23
:102AC000D66AF29400AE02D0F28A01D0F29AD58E84
:0C2AD00041E9E5CFDAFFE7CFD9FF1200A3
:042ADC00D9CFE6FF69
:102AE000E1CFD9FF89E941E81E0E041802E1055043
:102AF0000BE01F0E041808E1055006E100EBE9FFAA
:102B000001EBEAFFEF50096E42E9E7CFD9FF12006F
:102B1000D9CFE6FFDACFE6FFE1CFD9FFE2CFDAFF88
:102B200084E942E880EB04F081EB05F005EBCFFF90
:102B300004EBCEFF43E9E5CFDAFFE7CFD9FF120080
:102B4000D9CFE6FFDACFE6FFE1CFD9FFE2CFDAFF58
:102B500082E942E8CE50026ECF50036E02EBF3FFE3
:102B600003EBF4FF43E9E5CFDAFFE7CFD9FF12002B
:102B7000D9CFE6FFDACFE6FFE1CFD9FFE2CFDAFF28
:102B800084E942E880EB04F081EB05F005EBD7FF28
:102B900004EBD6FF43E9E5CFDAFFE7CFD9FF120018
:102BA000D9CFE6FFDACFE6FFE1CFD9FFE2CFDAFFF8
:102BB00083E9C30EC2140101616F00407F0B3C0B1F
:102BC0006111C26E41E9E5CFDAFFE7CFD9FF12000C
:102BD000D9CFE6FFDACFE6FFE1CFD9FFE2CFDAFFC8
:102BE00083E9ACAC04D0AC90010174B3AC8000EBD1
:0E2BF000ADFF41E9E5CFDAFFE7CFD9FF1200D4
:022BFE00F36A78
:102C0000F46AFF0EE124E96EFF0EE220EA6EED6643
:102C100007D02F0EEF6404D03A0EEF6001D0F32AF4
:022C20001200A0
:0E2C2200FF0EE3500101736F480E01D04C0EFF
:102C3000E76EE72EFED7E76AE72EFED7732FF7D7AA
:022C4000120080
:0E2C4200FF0EE3500101736F1A0E00D000D098
:102C500001D0200EE76EE72EFED7732FFAD700D0F3
:022C6000120060
:0E2C6200000EF36E00EE00F00D0E01D8120011
:102C7000EA6002D0EE6AFCD7F350E9601200EE6A17
:022C8000FCD77F
:0E2C8200FF0EE350ACBA04D0AF6AAB8EAC8A42
:0E2C9000949CACA2FED7AD6EF36EF46A1200F7
:022C9E001CEE2A
:102CA00000F02CEE00F0F86A5FEC13F07EEC16F00A
:082CB0009AEC09F0FBD71200B9
:082CB800C4CF63F163C164F1B4
:102CC0000101636BC3506311F36E64C1F4FF120022
:102CD000FF0EE350E84E1200000000D000D000D0FC
:062CE000E82EFAD71200F5
:0A2CE60030313233343536373839D7
:072CF0006162636465660088
:042CF800C282120082
:022CFC001200C4
:022CFE000100D3
:062D0000010000000000CC
:022D0600FEFFCE
:032D0800000000C8
:022D0B00FFFFC8
:020000040030CA
:010003001EDE
:00000001FF
